{
  "_format": "hh-sol-artifact-1",
  "contractName": "Transactions",
  "sourceName": "contracts/Transactions.sol",
  "abi": [
    {
      "anonymous": false,
      "inputs": [
        {
          "indexed": false,
          "internalType": "address",
          "name": "sender",
          "type": "address"
        },
        {
          "indexed": false,
          "internalType": "address",
          "name": "receiver",
          "type": "address"
        },
        {
          "indexed": false,
          "internalType": "uint256",
          "name": "amount",
          "type": "uint256"
        },
        {
          "indexed": false,
          "internalType": "uint256",
          "name": "uaid",
          "type": "uint256"
        },
        {
          "indexed": false,
          "internalType": "string",
          "name": "fullname",
          "type": "string"
        },
        {
          "indexed": false,
          "internalType": "string",
          "name": "fathername",
          "type": "string"
        },
        {
          "indexed": false,
          "internalType": "uint256",
          "name": "Cno",
          "type": "uint256"
        },
        {
          "indexed": false,
          "internalType": "uint256",
          "name": "Age",
          "type": "uint256"
        },
        {
          "indexed": false,
          "internalType": "string",
          "name": "gender",
          "type": "string"
        },
        {
          "indexed": false,
          "internalType": "string",
          "name": "houseaddrs",
          "type": "string"
        }
      ],
      "name": "Transfer1",
      "type": "event"
    },
    {
      "anonymous": false,
      "inputs": [
        {
          "indexed": false,
          "internalType": "address",
          "name": "sender",
          "type": "address"
        },
        {
          "indexed": false,
          "internalType": "address",
          "name": "receiver",
          "type": "address"
        },
        {
          "indexed": false,
          "internalType": "uint256",
          "name": "amount",
          "type": "uint256"
        },
        {
          "indexed": false,
          "internalType": "uint256",
          "name": "distance",
          "type": "uint256"
        },
        {
          "indexed": false,
          "internalType": "uint256",
          "name": "doO",
          "type": "uint256"
        },
        {
          "indexed": false,
          "internalType": "uint256",
          "name": "toO",
          "type": "uint256"
        }
      ],
      "name": "Transfer2",
      "type": "event"
    },
    {
      "anonymous": false,
      "inputs": [
        {
          "indexed": false,
          "internalType": "address",
          "name": "sender",
          "type": "address"
        },
        {
          "indexed": false,
          "internalType": "address",
          "name": "receiver",
          "type": "address"
        },
        {
          "indexed": false,
          "internalType": "uint256",
          "name": "amount",
          "type": "uint256"
        },
        {
          "indexed": false,
          "internalType": "string",
          "name": "offence",
          "type": "string"
        },
        {
          "indexed": false,
          "internalType": "string",
          "name": "section",
          "type": "string"
        },
        {
          "indexed": false,
          "internalType": "string",
          "name": "particulars",
          "type": "string"
        },
        {
          "indexed": false,
          "internalType": "string",
          "name": "witness",
          "type": "string"
        },
        {
          "indexed": false,
          "internalType": "string",
          "name": "complaint",
          "type": "string"
        }
      ],
      "name": "Transfer3",
      "type": "event"
    },
    {
      "inputs": [
        {
          "internalType": "address payable",
          "name": "receiver",
          "type": "address"
        },
        {
          "internalType": "uint256",
          "name": "amount",
          "type": "uint256"
        },
        {
          "internalType": "uint256",
          "name": "uaid",
          "type": "uint256"
        },
        {
          "internalType": "string",
          "name": "fullname",
          "type": "string"
        },
        {
          "internalType": "string",
          "name": "fathername",
          "type": "string"
        },
        {
          "internalType": "uint256",
          "name": "Cno",
          "type": "uint256"
        },
        {
          "internalType": "uint256",
          "name": "Age",
          "type": "uint256"
        },
        {
          "internalType": "string",
          "name": "gender",
          "type": "string"
        },
        {
          "internalType": "string",
          "name": "houseaddrs",
          "type": "string"
        }
      ],
      "name": "addToBlockchain1",
      "outputs": [],
      "stateMutability": "nonpayable",
      "type": "function"
    },
    {
      "inputs": [
        {
          "internalType": "address payable",
          "name": "receiver",
          "type": "address"
        },
        {
          "internalType": "uint256",
          "name": "amount",
          "type": "uint256"
        },
        {
          "internalType": "uint256",
          "name": "distance",
          "type": "uint256"
        },
        {
          "internalType": "uint256",
          "name": "doO",
          "type": "uint256"
        },
        {
          "internalType": "uint256",
          "name": "toO",
          "type": "uint256"
        }
      ],
      "name": "addToBlockchain2",
      "outputs": [],
      "stateMutability": "nonpayable",
      "type": "function"
    },
    {
      "inputs": [
        {
          "internalType": "address payable",
          "name": "receiver",
          "type": "address"
        },
        {
          "internalType": "uint256",
          "name": "amount",
          "type": "uint256"
        },
        {
          "internalType": "string",
          "name": "offence",
          "type": "string"
        },
        {
          "internalType": "string",
          "name": "section",
          "type": "string"
        },
        {
          "internalType": "string",
          "name": "particulars",
          "type": "string"
        },
        {
          "internalType": "string",
          "name": "witness",
          "type": "string"
        },
        {
          "internalType": "string",
          "name": "complaint",
          "type": "string"
        }
      ],
      "name": "addToBlockchain3",
      "outputs": [],
      "stateMutability": "nonpayable",
      "type": "function"
    },
    {
      "inputs": [],
      "name": "getAllTransactions1",
      "outputs": [
        {
          "components": [
            {
              "internalType": "address",
              "name": "sender",
              "type": "address"
            },
            {
              "internalType": "address",
              "name": "receiver",
              "type": "address"
            },
            {
              "internalType": "uint256",
              "name": "amount",
              "type": "uint256"
            },
            {
              "internalType": "uint256",
              "name": "uaid",
              "type": "uint256"
            },
            {
              "internalType": "string",
              "name": "fullname",
              "type": "string"
            },
            {
              "internalType": "string",
              "name": "fathername",
              "type": "string"
            },
            {
              "internalType": "uint256",
              "name": "Cno",
              "type": "uint256"
            },
            {
              "internalType": "uint256",
              "name": "Age",
              "type": "uint256"
            },
            {
              "internalType": "string",
              "name": "gender",
              "type": "string"
            },
            {
              "internalType": "string",
              "name": "houseaddrs",
              "type": "string"
            }
          ],
          "internalType": "struct Transactions.TransferStruct1[]",
          "name": "",
          "type": "tuple[]"
        }
      ],
      "stateMutability": "view",
      "type": "function"
    },
    {
      "inputs": [],
      "name": "getAllTransactions2",
      "outputs": [
        {
          "components": [
            {
              "internalType": "address",
              "name": "sender",
              "type": "address"
            },
            {
              "internalType": "address",
              "name": "receiver",
              "type": "address"
            },
            {
              "internalType": "uint256",
              "name": "amount",
              "type": "uint256"
            },
            {
              "internalType": "uint256",
              "name": "distance",
              "type": "uint256"
            },
            {
              "internalType": "uint256",
              "name": "doO",
              "type": "uint256"
            },
            {
              "internalType": "uint256",
              "name": "toO",
              "type": "uint256"
            }
          ],
          "internalType": "struct Transactions.TransferStruct2[]",
          "name": "",
          "type": "tuple[]"
        }
      ],
      "stateMutability": "view",
      "type": "function"
    },
    {
      "inputs": [],
      "name": "getAllTransactions3",
      "outputs": [
        {
          "components": [
            {
              "internalType": "address",
              "name": "sender",
              "type": "address"
            },
            {
              "internalType": "address",
              "name": "receiver",
              "type": "address"
            },
            {
              "internalType": "uint256",
              "name": "amount",
              "type": "uint256"
            },
            {
              "internalType": "string",
              "name": "offence",
              "type": "string"
            },
            {
              "internalType": "string",
              "name": "section",
              "type": "string"
            },
            {
              "internalType": "string",
              "name": "particulars",
              "type": "string"
            },
            {
              "internalType": "string",
              "name": "witness",
              "type": "string"
            },
            {
              "internalType": "string",
              "name": "complaint",
              "type": "string"
            }
          ],
          "internalType": "struct Transactions.TransferStruct3[]",
          "name": "",
          "type": "tuple[]"
        }
      ],
      "stateMutability": "view",
      "type": "function"
    }
  ],
  "bytecode": "0x608060405234801561001057600080fd5b50611d74806100206000396000f3fe608060405234801561001057600080fd5b50600436106100625760003560e01c806303bf69ed146100675780632319ded5146100855780633f45aa6b146100a357806351bb3e08146100bf5780637e1f996f146100db578063f62896ae146100f7575b600080fd5b61006f610115565b60405161007c9190611285565b60405180910390f35b61008d610505565b60405161009a9190611458565b60405180910390f35b6100bd60048036038101906100b891906114f8565b610881565b005b6100d960048036038101906100d491906116a8565b610a05565b005b6100f560048036038101906100f091906117e2565b610c24565b005b6100ff610e2e565b60405161010c9190611a3a565b60405180910390f35b60606002805480602002602001604051908101604052809291908181526020016000905b828210156104fc5783829060005260206000209060080201604051806101000160405290816000820160009054906101000a900473ffffffffffffffffffffffffffffffffffffffff1673ffffffffffffffffffffffffffffffffffffffff1673ffffffffffffffffffffffffffffffffffffffff1681526020016001820160009054906101000a900473ffffffffffffffffffffffffffffffffffffffff1673ffffffffffffffffffffffffffffffffffffffff1673ffffffffffffffffffffffffffffffffffffffff1681526020016002820154815260200160038201805461022390611a8b565b80601f016020809104026020016040519081016040528092919081815260200182805461024f90611a8b565b801561029c5780601f106102715761010080835404028352916020019161029c565b820191906000526020600020905b81548152906001019060200180831161027f57829003601f168201915b505050505081526020016004820180546102b590611a8b565b80601f01602080910402602001604051908101604052809291908181526020018280546102e190611a8b565b801561032e5780601f106103035761010080835404028352916020019161032e565b820191906000526020600020905b81548152906001019060200180831161031157829003601f168201915b5050505050815260200160058201805461034790611a8b565b80601f016020809104026020016040519081016040528092919081815260200182805461037390611a8b565b80156103c05780601f10610395576101008083540402835291602001916103c0565b820191906000526020600020905b8154815290600101906020018083116103a357829003601f168201915b505050505081526020016006820180546103d990611a8b565b80601f016020809104026020016040519081016040528092919081815260200182805461040590611a8b565b80156104525780601f1061042757610100808354040283529160200191610452565b820191906000526020600020905b81548152906001019060200180831161043557829003601f168201915b5050505050815260200160078201805461046b90611a8b565b80601f016020809104026020016040519081016040528092919081815260200182805461049790611a8b565b80156104e45780601f106104b9576101008083540402835291602001916104e4565b820191906000526020600020905b8154815290600101906020018083116104c757829003601f168201915b50505050508152505081526020019060010190610139565b50505050905090565b60606000805480602002602001604051908101604052809291908181526020016000905b8282101561087857838290600052602060002090600a0201604051806101400160405290816000820160009054906101000a900473ffffffffffffffffffffffffffffffffffffffff1673ffffffffffffffffffffffffffffffffffffffff1673ffffffffffffffffffffffffffffffffffffffff1681526020016001820160009054906101000a900473ffffffffffffffffffffffffffffffffffffffff1673ffffffffffffffffffffffffffffffffffffffff1673ffffffffffffffffffffffffffffffffffffffff168152602001600282015481526020016003820154815260200160048201805461061d90611a8b565b80601f016020809104026020016040519081016040528092919081815260200182805461064990611a8b565b80156106965780601f1061066b57610100808354040283529160200191610696565b820191906000526020600020905b81548152906001019060200180831161067957829003601f168201915b505050505081526020016005820180546106af90611a8b565b80601f01602080910402602001604051908101604052809291908181526020018280546106db90611a8b565b80156107285780601f106106fd57610100808354040283529160200191610728565b820191906000526020600020905b81548152906001019060200180831161070b57829003601f168201915b50505050508152602001600682015481526020016007820154815260200160088201805461075590611a8b565b80601f016020809104026020016040519081016040528092919081815260200182805461078190611a8b565b80156107ce5780601f106107a3576101008083540402835291602001916107ce565b820191906000526020600020905b8154815290600101906020018083116107b157829003601f168201915b505050505081526020016009820180546107e790611a8b565b80601f016020809104026020016040519081016040528092919081815260200182805461081390611a8b565b80156108605780601f1061083557610100808354040283529160200191610860565b820191906000526020600020905b81548152906001019060200180831161084357829003601f168201915b50505050508152505081526020019060010190610529565b50505050905090565b60016040518060c001604052803373ffffffffffffffffffffffffffffffffffffffff1681526020018773ffffffffffffffffffffffffffffffffffffffff16815260200186815260200185815260200184815260200183815250908060018154018082558091505060019003906000526020600020906006020160009091909190915060008201518160000160006101000a81548173ffffffffffffffffffffffffffffffffffffffff021916908373ffffffffffffffffffffffffffffffffffffffff16021790555060208201518160010160006101000a81548173ffffffffffffffffffffffffffffffffffffffff021916908373ffffffffffffffffffffffffffffffffffffffff16021790555060408201518160020155606082015181600301556080820151816004015560a0820151816005015550507fb10f32640a6165692eefd0cb7dd74d557f77c0b8c626f542c14a2750b112374b3386868686866040516109f696959493929190611b3a565b60405180910390a15050505050565b60006040518061014001604052803373ffffffffffffffffffffffffffffffffffffffff1681526020018b73ffffffffffffffffffffffffffffffffffffffff1681526020018a81526020018981526020018881526020018781526020018681526020018581526020018481526020018381525090806001815401808255809150506001900390600052602060002090600a020160009091909190915060008201518160000160006101000a81548173ffffffffffffffffffffffffffffffffffffffff021916908373ffffffffffffffffffffffffffffffffffffffff16021790555060208201518160010160006101000a81548173ffffffffffffffffffffffffffffffffffffffff021916908373ffffffffffffffffffffffffffffffffffffffff16021790555060408201518160020155606082015181600301556080820151816004019080519060200190610b60929190610f61565b5060a0820151816005019080519060200190610b7d929190610f61565b5060c0820151816006015560e08201518160070155610100820151816008019080519060200190610baf929190610f61565b50610120820151816009019080519060200190610bcd929190610f61565b5050507f7f6310276526571fdb4ce169db9a9c9801f282ebd0f162d76da84ae56ff11512338a8a8a8a8a8a8a8a8a604051610c119a99989796959493929190611be5565b60405180910390a1505050505050505050565b60026040518061010001604052803373ffffffffffffffffffffffffffffffffffffffff1681526020018973ffffffffffffffffffffffffffffffffffffffff16815260200188815260200187815260200186815260200185815260200184815260200183815250908060018154018082558091505060019003906000526020600020906008020160009091909190915060008201518160000160006101000a81548173ffffffffffffffffffffffffffffffffffffffff021916908373ffffffffffffffffffffffffffffffffffffffff16021790555060208201518160010160006101000a81548173ffffffffffffffffffffffffffffffffffffffff021916908373ffffffffffffffffffffffffffffffffffffffff160217905550604082015181600201556060820151816003019080519060200190610d69929190610f61565b506080820151816004019080519060200190610d86929190610f61565b5060a0820151816005019080519060200190610da3929190610f61565b5060c0820151816006019080519060200190610dc0929190610f61565b5060e0820151816007019080519060200190610ddd929190610f61565b5050507fabc8ce53b90122f1bd0ec071665a3963dc85ec4e416f3d63f2621bd238b680f83388888888888888604051610e1d989796959493929190611c9d565b60405180910390a150505050505050565b60606001805480602002602001604051908101604052809291908181526020016000905b82821015610f5857838290600052602060002090600602016040518060c00160405290816000820160009054906101000a900473ffffffffffffffffffffffffffffffffffffffff1673ffffffffffffffffffffffffffffffffffffffff1673ffffffffffffffffffffffffffffffffffffffff1681526020016001820160009054906101000a900473ffffffffffffffffffffffffffffffffffffffff1673ffffffffffffffffffffffffffffffffffffffff1673ffffffffffffffffffffffffffffffffffffffff16815260200160028201548152602001600382015481526020016004820154815260200160058201548152505081526020019060010190610e52565b50505050905090565b828054610f6d90611a8b565b90600052602060002090601f016020900481019282610f8f5760008555610fd6565b82601f10610fa857805160ff1916838001178555610fd6565b82800160010185558215610fd6579182015b82811115610fd5578251825591602001919060010190610fba565b5b509050610fe39190610fe7565b5090565b5b80821115611000576000816000905550600101610fe8565b5090565b600081519050919050565b600082825260208201905092915050565b6000819050602082019050919050565b600073ffffffffffffffffffffffffffffffffffffffff82169050919050565b600061105b82611030565b9050919050565b61106b81611050565b82525050565b6000819050919050565b61108481611071565b82525050565b600081519050919050565b600082825260208201905092915050565b60005b838110156110c45780820151818401526020810190506110a9565b838111156110d3576000848401525b50505050565b6000601f19601f8301169050919050565b60006110f58261108a565b6110ff8185611095565b935061110f8185602086016110a6565b611118816110d9565b840191505092915050565b60006101008301600083015161113c6000860182611062565b50602083015161114f6020860182611062565b506040830151611162604086018261107b565b506060830151848203606086015261117a82826110ea565b9150506080830151848203608086015261119482826110ea565b91505060a083015184820360a08601526111ae82826110ea565b91505060c083015184820360c08601526111c882826110ea565b91505060e083015184820360e08601526111e282826110ea565b9150508091505092915050565b60006111fb8383611123565b905092915050565b6000602082019050919050565b600061121b82611004565b611225818561100f565b93508360208202850161123785611020565b8060005b85811015611273578484038952815161125485826111ef565b945061125f83611203565b925060208a0199505060018101905061123b565b50829750879550505050505092915050565b6000602082019050818103600083015261129f8184611210565b905092915050565b600081519050919050565b600082825260208201905092915050565b6000819050602082019050919050565b6000610140830160008301516112ec6000860182611062565b5060208301516112ff6020860182611062565b506040830151611312604086018261107b565b506060830151611325606086018261107b565b506080830151848203608086015261133d82826110ea565b91505060a083015184820360a086015261135782826110ea565b91505060c083015161136c60c086018261107b565b5060e083015161137f60e086018261107b565b5061010083015184820361010086015261139982826110ea565b9150506101208301518482036101208601526113b582826110ea565b9150508091505092915050565b60006113ce83836112d3565b905092915050565b6000602082019050919050565b60006113ee826112a7565b6113f881856112b2565b93508360208202850161140a856112c3565b8060005b85811015611446578484038952815161142785826113c2565b9450611432836113d6565b925060208a0199505060018101905061140e565b50829750879550505050505092915050565b6000602082019050818103600083015261147281846113e3565b905092915050565b6000604051905090565b600080fd5b600080fd5b600061149982611030565b9050919050565b6114a98161148e565b81146114b457600080fd5b50565b6000813590506114c6816114a0565b92915050565b6114d581611071565b81146114e057600080fd5b50565b6000813590506114f2816114cc565b92915050565b600080600080600060a0868803121561151457611513611484565b5b6000611522888289016114b7565b9550506020611533888289016114e3565b9450506040611544888289016114e3565b9350506060611555888289016114e3565b9250506080611566888289016114e3565b9150509295509295909350565b600080fd5b600080fd5b7f4e487b7100000000000000000000000000000000000000000000000000000000600052604160045260246000fd5b6115b5826110d9565b810181811067ffffffffffffffff821117156115d4576115d361157d565b5b80604052505050565b60006115e761147a565b90506115f382826115ac565b919050565b600067ffffffffffffffff8211156116135761161261157d565b5b61161c826110d9565b9050602081019050919050565b82818337600083830152505050565b600061164b611646846115f8565b6115dd565b90508281526020810184848401111561166757611666611578565b5b611672848285611629565b509392505050565b600082601f83011261168f5761168e611573565b5b813561169f848260208601611638565b91505092915050565b60008060008060008060008060006101208a8c0312156116cb576116ca611484565b5b60006116d98c828d016114b7565b99505060206116ea8c828d016114e3565b98505060406116fb8c828d016114e3565b97505060608a013567ffffffffffffffff81111561171c5761171b611489565b5b6117288c828d0161167a565b96505060808a013567ffffffffffffffff81111561174957611748611489565b5b6117558c828d0161167a565b95505060a06117668c828d016114e3565b94505060c06117778c828d016114e3565b93505060e08a013567ffffffffffffffff81111561179857611797611489565b5b6117a48c828d0161167a565b9250506101008a013567ffffffffffffffff8111156117c6576117c5611489565b5b6117d28c828d0161167a565b9150509295985092959850929598565b600080600080600080600060e0888a03121561180157611800611484565b5b600061180f8a828b016114b7565b97505060206118208a828b016114e3565b965050604088013567ffffffffffffffff81111561184157611840611489565b5b61184d8a828b0161167a565b955050606088013567ffffffffffffffff81111561186e5761186d611489565b5b61187a8a828b0161167a565b945050608088013567ffffffffffffffff81111561189b5761189a611489565b5b6118a78a828b0161167a565b93505060a088013567ffffffffffffffff8111156118c8576118c7611489565b5b6118d48a828b0161167a565b92505060c088013567ffffffffffffffff8111156118f5576118f4611489565b5b6119018a828b0161167a565b91505092959891949750929550565b600081519050919050565b600082825260208201905092915050565b6000819050602082019050919050565b60c0820160008201516119526000850182611062565b5060208201516119656020850182611062565b506040820151611978604085018261107b565b50606082015161198b606085018261107b565b50608082015161199e608085018261107b565b5060a08201516119b160a085018261107b565b50505050565b60006119c3838361193c565b60c08301905092915050565b6000602082019050919050565b60006119e782611910565b6119f1818561191b565b93506119fc8361192c565b8060005b83811015611a2d578151611a1488826119b7565b9750611a1f836119cf565b925050600181019050611a00565b5085935050505092915050565b60006020820190508181036000830152611a5481846119dc565b905092915050565b7f4e487b7100000000000000000000000000000000000000000000000000000000600052602260045260246000fd5b60006002820490506001821680611aa357607f821691505b60208210811415611ab757611ab6611a5c565b5b50919050565b611ac681611050565b82525050565b6000819050919050565b6000611af1611aec611ae784611030565b611acc565b611030565b9050919050565b6000611b0382611ad6565b9050919050565b6000611b1582611af8565b9050919050565b611b2581611b0a565b82525050565b611b3481611071565b82525050565b600060c082019050611b4f6000830189611abd565b611b5c6020830188611b1c565b611b696040830187611b2b565b611b766060830186611b2b565b611b836080830185611b2b565b611b9060a0830184611b2b565b979650505050505050565b600082825260208201905092915050565b6000611bb78261108a565b611bc18185611b9b565b9350611bd18185602086016110a6565b611bda816110d9565b840191505092915050565b600061014082019050611bfb600083018d611abd565b611c08602083018c611b1c565b611c15604083018b611b2b565b611c22606083018a611b2b565b8181036080830152611c348189611bac565b905081810360a0830152611c488188611bac565b9050611c5760c0830187611b2b565b611c6460e0830186611b2b565b818103610100830152611c778185611bac565b9050818103610120830152611c8c8184611bac565b90509b9a5050505050505050505050565b600061010082019050611cb3600083018b611abd565b611cc0602083018a611b1c565b611ccd6040830189611b2b565b8181036060830152611cdf8188611bac565b90508181036080830152611cf38187611bac565b905081810360a0830152611d078186611bac565b905081810360c0830152611d1b8185611bac565b905081810360e0830152611d2f8184611bac565b9050999850505050505050505056fea26469706673582212207a5609ee3d152a2d14b7b6ab11ba5525c36a9dc65491e6d56f484fd17aaf49b964736f6c63430008090033",
  "linkReferences": {},
  "deployedLinkReferences": {}
}